:020000040000fa
:10000000f8ff0320f52a00004b30000053360000b3
:10001000d7370000f73800003f3a0000000000002a
:10002000000000000000000000000000d1400000bf
:10003000f336000000000000a1310000e13e0000a6
:10004000b73a0000b73a0000b73a0000b73a0000ec
:10005000b73a0000b73a0000b73a0000b73a0000dc
:10006000b73a0000b73a0000b73a0000b73a0000cc
:10007000b73a0000b73a0000b73a0000b73a0000bc
:10008000b73a0000b73a0000b73a0000b73a0000ac
:10009000b73a0000b73a0000b73a0000b73a00009c
:1000a000b73a0000b73a0000b73a0000b73a00008c
:1000b000b73a0000b73a0000b73a0000b73a00007c
:1000c000b73a0000b73a0000b73a0000b73a00006c
:1000d000b73a0000b73a0000b73a0000b73a00005c
:1000e000b73a0000b73a000000000000000000002e
:1000f00000000000b73a0000b73a0000b73a00002d
:10010000b73a0000b73a0000b73a0000b73a00002b
:10011000b73a0000b73a0000b73a0000b73a00001b
:10012000b73a0000b73a00009511000095110000a1
:100130009511000095110000b73a0000b73a000091
:10014000b73a0000b73a0000b73a0000b73a0000eb
:10015000b73a0000b73a0000b73a0000b73a0000db
:10016000b73a0000b73a0000b73a0000b73a0000cb
:10017000b73a0000b73a0000b73a0000b73a0000bb
:10018000b73a0000b73a0000b73a0000b73a0000ab
:10019000b73a0000b73a0000b73a0000b73a00009b
:1001a000b73a0000b73a0000b73a0000b73a00008b
:1001b000b73a0000b73a0000b73a0000b73a00007b
:1001c000b73a0000b73a0000b73a0000b73a00006b
:1001d000b73a0000b73a0000b73a0000b73a00005b
:1001e000b73a0000b73a0000b73a0000b73a00004b
:1001f000b73a0000b73a0000b73a0000b73a00003b
:10020000b73a0000b73a0000b73a0000b73a00002a
:10021000b73a0000b73a0000b73a0000b73a00001a
:10022000b73a0000b73a0000b73a0000b73a00000a
:10023000b73a0000b73a0000b73a0000b73a0000fa
:10024000b73a0000b73a0000b73a0000b73a0000ea
:10025000b73a0000b73a0000b73a0000b73a0000da
:04026000b73a0000a9
:020000040000fa
:10026400f8b500bff8bc08bc9e467047a53900002d
:10027400f8b500bff8bc08bc9e4670478139000041
:020000040000fa
:080284000c060000010000005f
:020000040000fa
:10028c005ca700201c00000000000000f8a6002065
:10029c00380000000000000030a700202c000000f7
:1002ac00000000000000002004000000000000001e
:1002bc00dca700201000000000000000040000205b
:1002cc00040000000000000030a900200400000021
:1002dc0001000000aaaaaaaa34a40020040000006d
:1002ec00000000002c00002000a000000000000016
:1002fc00f4a700200400000000000000f8a7002074
:10030c000400000000000000fca700200400000016
:10031c000000000000a80020040000000000000005
:10032c0044a60020640000000000000004a8002087
:10033c00040000000000000008a8002004000000d9
:10034c00000000000ca800200400000000000000c9
:10035c0010a80020040000000000000014a80020d9
:10036c00040000000000000078a70020140000002a
:10037c00000000008ca7002014000000000000000a
:10038c0018a8002004000000000000001ca8002099
:10039c00040000000000000020a800200400000061
:1003ac000000000024a80020040000000000000051
:1003bc00a0a70020140000000000000028a80020c6
:1003cc000400000000000000b4a70020140000008e
:1003dc0000000000c8a7002014000000000000006e
:1003ec002ca80020040000000000000030a8002011
:1003fc00040000000000000034a9002004000000ec
:10040c00010000000400000008000020240000008f
:10041c000000000034a800200400000000000000d0
:10042c00a8a60020500000000000000044a80020f6
:10043c006c0000000100000050a800204ca8002017
:10044c0050a80020000000002500000034a000206f
:10045c00000400000000000000000000000000008c
:10046c000000000000000000000000000000000080
:10047c0000000000e7450000000000000000000044
:10048c000000000000000000253300000000000008
:10049c000000000000000000000000000000000050
:1004ac00000000002ca00020080400000000000048
:1004bc0010a9002020000000010000000100000035
:1004cc00030000000000000000000000000000001d
:1004dc000000000000000000eca70020eca70020aa
:1004ec00080000000000000038a8002004000000f4
:1004fc00000000003ca800200400000000000000e8
:10050c0038a400200c02000000000000b0a800205d
:10051c00600000000100000001000000030000006a
:10052c0000000000000000000000000000000000bf
:10053c0000000000993400000000000000000000e2
:10054c0000000000d3450000c34200000000000082
:10055c00000000000000000000000000000000008f
:10056c00000000000000000000000000000000007f
:10057c00000000000000000040a800200400000063
:10058c00000000000000000000000000444444444f
:020000040000fa
:10059c002de9f04fadb00027dff8e4a20391064639
:1005ac001546b8464ff0ff3903990b78002b00f035
:1005bc00f9800cabcde907890a938023cdf8248010
:1005cc000b9300240b5d0bb1252b26d134b12246a5
:1005dc00304603f04dfa039b23440393039b1a7894
:1005ec00252a40f0d78003f1010bcdf80cb003980d
:1005fc0003782b2b1ad025d8202b1bd0232b1dd0c6
:10060c002a2b27d003f04ef90990039b1a78303a25
:10061c00092a2ed801330393f7e70134d2e7079b5d
:10062c0043f00103013007930390e0e7079b43f08d
:10063c000403f7e7079b43f00803f3e7079b43f03a
:10064c001003efe72d2bead0302bd9d1079b43f0c9
:10065c000203e7e72b681a1d1b682a600130002b88
:10066c000390099305da079a5b4282f00102079224
:10067c000993079bda0744bf23f002030793039bfc
:10068c001a782e2a0dd1581ccdf8208003905a7858
:10069c002a2a25d1023303932b681a1d1b682a6062
:1006ac00089303a803f01efa039b0190187803f03b
:1006bc004bff6928019979d032dc632800f0c680a1
:1006cc0019dc252800f0d080612853d025238df823
:1006dc001030cdf80cb0cdf81c80cde90898c0e0f6
:1006ec0003f0e0f80890039b1a78303a092ad8d81e
:1006fc0001330393f7e7642858d06728e6dc2a46d1
:10070c0004a803f029fc002800f09c80039b5a1cd1
:10071c0003921b7804aa07a9304603f05cff38e06b
:10072c00702873d015dc6e2800f087806f28cdd12f
:10073c002b46002204a801f0d3fe002800f0828092
:10074c00039b04aa013307a93046039302f03efc35
:10075c001fe075283ad0782848d07328b6d1802964
:10076c0070d1039b2a6801330393131d2b6012680d
:10077c0000235be02a4604a803f0eefb002861d0be
:10078c00039b5a1c03921b7804aa07a9304603f05a
:10079c0022ff04443c44a7426edd384b4f221a60c2
:1007ac004ff0ff3738462db0bde8f08f2b460122b5
:1007bc0004a801f095fe002844d0039b04aa013341
:1007cc0007a93046039301f035ffe2e72b460022e0
:1007dc0004a801f085fe002834d0039b04aa013341
:1007ec0007a93046039302f003ffd2e72b46002201
:1007fc0004a801f075fe28b3039b5a1c03921b78c6
:10080c0004aa07a9304601f065fac2e72b4600227c
:10081c00f02104a801f064fea0b1039b0133039303
:10082c00dde90423134306d10023524607a93046c1
:10083c0002f086feade77823e2e72b463a1904a8ce
:10084c0002f09bfa039b01330393a3e78029f9d1b0
:10085c00039b013303932b681a1d1b682a608df8c8
:10086c001030012304aae1e78029ebd1039b8df81a
:10087c00100001330393f4e7274695e63ca80020cb
:04088c002e430000f7
:020000040000fa
:100890002de9f04f099f154604468e461e46002b53
:1008a00040f0cc808a42b2fa82fc4cd9bcf1000ff5
:1008b0000bd0ccf1200801fa0cfe20fa08f802fa5d
:1008c0000cf548ea0e0e00fa0cf44fea15491ffa2f
:1008d00085f8befbf9fa210c09fb1ae30afb08fbb9
:1008e00041ea03439b452ad9eb180af1ff3004d2b1
:1008f0009b4502d9aaf102002b44a3eb0b03a4b23f
:10090000b3fbf9f209fb123302fb08f844ea034493
:10091000a04516d92c1902f1ff3303d2a04501d905
:10092000931e2c44a4eb080443ea004027b124faa8
:100930000cf400233c607b603146bde8f08f5046ec
:10094000dbe71346eee702b9ffdebcf1000f2ed164
:100950008b1a01264fea154eaab2b3fbfef8210c02
:100960000efb183308fb02f941ea0343994561d9ac
:10097000eb1808f1ff3004d2994502d9a8f1020022
:100980002b44a3eb0903a4b2b3fbfef10efb11331e
:100990004a4344ea0344a2424ed92c1901f1ff33e1
:1009a00003d2a24201d98b1e2c44a41abce7ccf17d
:1009b000200e02fa0cf521fa0ef901fa0cf320fad6
:1009c0000efe4eea03034fea154800fa0cf4b9fb99
:1009d000f8f11ffa85fe08fb1192180c01fb0ef6c8
:1009e00040ea0242964221d9aa1801f1ff3003d20f
:1009f000964201d9881e2a44921b9bb2b2fbf8f999
:100a000008fb192209fb0efe43ea02439e450fd95b
:100a1000eb1809f1ff3604d29e4502d9a9f102066e
:100a20002b44a3eb0e0346ea004693e70846e3e7b0
:100a30004e46f6e74046a4e70b46b6e78b4206d99a
:100a4000002f7ed00026c7e90001304674e7b3fad4
:100a500083fcbcf1000f0fd18b4201d3824209d835
:100a6000841a61eb030e0120002f6dd0c7e9004e00
:100a7000002661e76046f7e7ccf1200e03fa0cf39d
:100a800022fa0ef521fa0ef41d4301fa0cf320fab6
:100a90000ef10b434fea154a00fa0cf6b4fbfaf9d3
:100aa0001ffa85f80afb19401c0c09fb08f144eaff
:100ab0000044a14202fa0cf23fd92c1909f1ff308f
:100ac00004d2a14202d9a9f102002c44641a9bb2bb
:100ad000b4fbfaf90afb194409fb08f843ea04419c
:100ae00088452cd9691809f1ff3304d2884502d909
:100af000a9f10203294443ea0040a1eb0801a0fb4d
:100b000002894945c2464c4602d306d1464504d225
:100b1000b8eb020a69eb05040138afb1b6eb0a0382
:100b200061eb040606fa0efe23fa0cf34eea030309
:100b300026fa0cf6c7e900369ae74846c6e74b4660
:0c0b4000d9e73e463846f7e63e46f5e6ab
:020000040000fa
:100b4c0030b591ea030f00f18280841a71eb030c2b
:100b5c0005d2121953eb0c03001b71eb0c0140f284
:100b6c00000ccff6e07c1cea430f52d0bceb410fdb
:100b7c005fd90c0da4eb135e5ff0010c6cf31f51ed
:100b8c006cf31f53def1200c2ad303fa0cf5401939
:100b9c0041f1000122fa0ef5401923fa0ef56941d4
:100bac0012fa0cf2cd0208d349085fea30005fea72
:100bbc00320228bf42f001020134013c5fea500cc2
:100bcc0072f1004250f1000051eb04514ff400134c
:100bdc0013eb410f38bf30bd6ff31301002030bd54
:100bec00bef1200ebef1200f1ed223fa0ef54019d5
:100bfc0041f10001cef1200c124218bf012203fa80
:100c0c000cf52a43cee711ea5c0f04bf002000214b
:100c1c0030bd1cea410f04bf01f00041002030bd83
:100c2c0001f00041002030bd21f4801101eb045192
:100c3c0030bd004218bf41f00101bceb410f08bfb1
:100c4c0030bd4ff0fe4141f47801002030bd83f0ff
:100c5c000043841a71eb030e07d28ef0004e001b7a
:100c6c0071eb0e01121953eb0e0340f2000ccff690
:100c7c00e07c1cea430fc6d0bceb410f72d90c0dc3
:100c8c00a4eb135ec90241ea5051c00241f000418d
:100c9c00db0243ea5253d20243f00043def1200c54
:100cac0041d312fa0cf522fa0ef203fa0cf542ead1
:100cbc00050218bf42f0010223fa0ef3801a994183
:100ccc00e30ac4f30a0411f0404f03d418d0013cda
:100cdc0040004941013c23d44205c00a40ea41503e
:100cec00c90a51eac3715fea500c72f1004250f12b
:100cfc00000051eb045130bd01002fd00020203cee
:100d0c000029f9d0b1fa81fcdcf1200e11fa0cf1ba
:100d1c0030fa0ef510fa0cf02943a4eb0c04d9e7c9
:100d2c000020d90730bdaef1200ebef1200f0dd240
:100d3c00cef1200c03fa0cf533fa0ef32a4318bf4c
:100d4c0043f00103c01a61f10001b9e721f0004141
:100d5c00c00a40ea4150c90a01eb045130bd0020e1
:100d6c00002130bd004218bf41f00101bceb410f26
:0e0d7c007ff467afbceb430f3ff463af30bdb5
:020000040000fa
:100d8a00f0b581ea030e0ef0004e40f20007cff6ee
:100d9a00e07717ea41051ebf95ea070f17ea4304f1
:100daa0094ea070f00f0c5806d0da5eb545707f5bf
:100dba0080674ff0004646eac12444ea5054c00214
:100dca0046eac32343ea5253d202801a9c4104d210
:100dda000018644180185c41013f5b084fea320207
:100dea000025002140f001004ff0070604e0801ab8
:100dfa009c4136d340416441801a9c4136d34041dc
:100e0a006441801a9c4136d340416441801a9c4116
:100e1a0036d340416441801a9c4136d340416441f3
:100e2a00013e17d0801a9c4136d340416441801a52
:100e3a009c4136d340416441801a9c4136d340419b
:100e4a006441090201eb156190ea052520f0ff00d3
:100e5a004540cce7801a9c4156d335e080185c4166
:100e6a00c8d20018644180185c41c8d20018644195
:100e7a0080185c41c8d20018644180185c41c8d20d
:100e8a000018644180185c41c8d200186441013ed0
:100e9a0017d080185c41c8d20018644180185c41a0
:100eaa00c8d20018644180185c41c8d20018644155
:100eba00090201eb156190ea052520f0ff00454083
:100eca00cce780185c411fd3420918bf44f00104e3
:100eda00490101ebd56100f01f0000eb451021f438
:100eea00801141ea0e01013041f10001244208bf9c
:100efa0020f00100b7f5006f3eda013f49dd01eb52
:100f0a000751bde8f0407047490101ebd56100f097
:100f1a001f0000eb451021f4801141ea0e01b7f5dc
:100f2a00006f29da013f34dd01eb0751bde8f040db
:100f3a007047004218bf41f00101124218bf43f046
:100f4a000103b7eb410f2cbfb7eb430f1ce0b7eb24
:100f5a00410f04bfb7eb430f16e017ea410f04bf76
:100f6a0017ea430f10e017ea410f12d017ea430fae
:100f7a0002d0b7eb430f0cd04ef0fe4141f47001a2
:100f8a000020bde8f04070474ff0fe4141f478017f
:060f9a00f6e77146f4e7e2
:020000040000fa
:100fa0002de9f84307460e4698469500284601f07d
:100fb000e5fd002800f0c9808146542001f0defde7
:100fc0000446002800f08c805422002103f0aafa85
:100fd000c4f830902a46a521484603f0a3fa043d00
:100fe000236b1d4425f007058eb1337884f8343027
:100ff00053b1334604f134010f3613f8012f01f8d1
:10100000012f0ab1b342f8d1002384f84330089b82
:10101000042b28bf04239946e3626364261d3046ef
:1010200003f0d4fa04f1180003f0d0fa2461c9f1f6
:101030000503a361646242463946284602f03aff3e
:101040002060099b03b11c6003f0d0f8434a136889
:1010500001331360424b1b68002b47d0414b1b6888
:101060003bb93f4b1b68da6ae36a9a429cbf3c4b30
:101070001c603d4a136801331360e36a3b4908680a
:1010800001229a4002430a60394a03eb830302ebd0
:1010900083035b68a3609968e1604e609e60e06acc
:1010a00083001918890055186561515801310344ae
:1010b0009b00d15003f0d6f92a4b1b68002b48d077
:1010c000274b1b68da6ae36a9a4244d2294b4ff0f5
:1010d00080521a60bff34f8fbff36f8f012036e04d
:1010e000484602f0e6fe4ff0ff3030e01c4b1c603b
:1010f0001368012bbdd11e4d284603f088f905f178
:10110000140003f084f905f1280003f080f905f1db
:101110003c0003f07cf905f1500003f078f9164f1c
:10112000384603f074f9154d284603f070f9144859
:1011300003f06df9134803f06af9134803f067f9f7
:10114000124b1f60124b1d6093e74ff0ff30bde85c
:10115000f8830120fbe70120f9e700bf04a8002085
:10116000f8a7002028a8002010a8002014a800201c
:1011700044a6002004ed00e078a700208ca7002002
:10118000a0a70020c8a70020b4a70020fca700202b
:0411900000a8002093
:020000040000fa
:1011940008b5694b9b7dd3b1674b5b8b13f0020f92
:1011a40016d0664bff2283f82020022283f82120e8
:1011b400624b93f820305bb2b3f1ff3f00f08b80b9
:1011c4005e4b93f820305bb2062b00f09c8008bd88
:1011d400594b5b8b13f0010f07d0584bff2283f858
:1011e4002020022283f82120e2e7534b5b8b13f08b
:1011f400040f07d0514bff2283f82020012283f8eb
:101204002120d5e74d4b93f820305bb2032b42d01d
:10121400042b10d0022bcbd1484b1b692bb10021de
:10122400464b988802f064fac2e70121434b988840
:1012340002f05efabce7414a9369126993420bd00b
:101244003e4a9168c85c3c498862013393610a460e
:10125400d369002bfcd1abe7384b5b6973b1374bd7
:101264009b885b0043f00103334a5362d369002b2c
:10127400fcd1324b032283f8202099e72e4a53688d
:1012840043f440335360d369002bfcd12b4b06222b
:1012940083f820208ce7294a5369013bd2699a429a
:1012a4000cd0254ad369002bfcd1234b986a234ade
:1012b400d369d168c8540133d36179e71e4a5368ae
:1012c40043f4e0235360d369002bfcd11b4b06226b
:1012d40083f82020e5e7194b002283f82020164ae2
:1012e400536843f440335360d369002bfcd1124b51
:1012f40083221a76114b5b6a002b3ff468af0f4ac6
:10130400906a984763e70d4b002283f8202083f806
:101314002120094b83221a761a46538b03f030039b
:10132400102bfad1054b5b6a002b3ff450af034af4
:10133400906a98474be700bf0040014130a7002066
:020000040000fa
:101344002de9f04f87b0039003a802f037fb002883
:1013540003da002007b0bde8f08f039b1b095d1e74
:10136400202d0fd9023b5e4ab3f5007f35bf02eb57
:10137400d30302ebd31313f8045c13f8045c34bff7
:10138400013511350123a5f12001c5f1200203fa2d
:1013940001f923fa02f203fa05f8d8f1000849ea40
:1013a400020969eb4909cde90089dff84081dff8da
:1013b40030914746d8e90023009902ea010a0199cd
:1013c40003ea010b5aea0b0342d1039b05a810332d
:1013d400059303f030f818b9424b0c221a60b9e7b0
:1013e400d8f80852a84206d0059b103b0593012368
:1013f40000f110058360059bea18012143f0010305
:10140400b5f1080442f8083c42f8041cc7f8082265
:1014140045f8043c9dd0204602f0eafc88b155f81a
:10142400083c55f8041c23f00103e31a5a6822f01f
:1014340001020a445a6055f8041c21f0010162506b
:101444001c462046039902f01bfd04f1080081e7c5
:101454005446254bbaf1000f34d1cbf1000000ea19
:101464000b00434309ebd36393f83c6020363046ca
:1014740002f0dafe731c57f8334007ebc303083b52
:101484009c4297d0272e26dd0235ae4201dc3f2e4a
:1014940021d16268039922f00102551a284602f00c
:1014a4005dfb864217d1e068a6686318d8609e6029
:1014b40083609868c36041f0010060505d60a5508e
:1014c4006060bee7caf100002040434309ebd363e8
:1014d40093f83c60cbe73146204602f061f8b0e770
:1014e4003c3400003ca8002029e66b0738a4002007
:020000040000fa
:1014f4002de9f84f584b1b68002b40f0a780574b41
:101504001c6801341c60b4b1554b1b68a3421fd93d
:101514000020544b1b68db6a03eb83039b00524a95
:10152400d358022b28bf0120504b1b68002b18bf37
:101534000120bde8f88f4e4a11684e4b18681060c0
:1015440019604d4a13680133136002f06ffddbe745
:10155400002047498346494d4ff0010e424adff8c7
:1015640004c137e03e4b4ff0ff321a60d1e73c4be9
:101574001e60cee7de6ad5f800a00efa06f848ea47
:101584000a08c5f8008006eb860602eb8606766834
:101594009e60d6f80880c3f80c80c8f80490c6f89a
:1015a4000890d3f82c904fea890606eb090802eb61
:1015b400880ac3f814a052f8288008f101084e44a0
:1015c40042f82680dcf80080de6ad8f82c309e428f
:1015d40088bf01200b681b68002bc3d00b68db6835
:1015e400db685e68b442c2d3d3f81480de689f68b7
:1015f400be609f68776003f10409d8f804604e4523
:1016040004bfde68c8f80460c3f814b0d8f80060fa
:10161400013ec8f80060d3f82880b8f1000fa9d0c3
:101624001e6adf69be60df69776003f1180ad8f8c3
:101634000460564504bf1e6ac8f80460c3f828b0a5
:10164400d8f80060013ec8f8006093e70c4a1368bc
:101654000133136000206ce70ca800202ca80020a4
:101664001ca80020f8a7002044a6002030a80020d1
:10167400fca7002000a8002020a8002014a8002017
:0416840024a8002076
:020000040000fa
:101688002de9f04702f0aefd504b1a68013a1a6096
:101698001b68002b40f093804d4b1b680bb900244e
:1016a8008ee000234b491c464b4801264b4adff885
:1016b8003ca1dff830c10d68002d5fd0cb68db6836
:1016c800d3f828e0dd691f6aaf601d6adf696f60c3
:1016d80003f11808def80450454504bf1d6acef82a
:1016e80004509c62def80050013dcef80050d3f85b
:1016f8001480dd689f68bd609f686f6003f1040e09
:10170800d8f80450754504bfdd68c8f804505c611a
:10171800d8f80050013dc8f80050dd6ad0f80090b4
:1017280006fa05f848ea0908c0f8008005eb8505bf
:1017380002eb85056d689d60d5f80880c3f80c80bc
:10174800c8f804e0c5f808e0d3f82c804fea88050b
:1017580005eb080e02eb8e09c3f8149052f82ee040
:101768000ef1010e454442f825e0daf80050ed6a22
:10177800df6aaf429fd3ccf800609ce70bb102f060
:1017880053fc174b1c686cb1164e012501e0013c57
:1017980005d0fff7abfe0028f9d03560f7e7104b0e
:1017a80000221a600f4b1c6854b10f4b4ff0805247
:1017b8001a60bff34f8fbff36f8f012400e000243e
:1017c80002f04cfe2046bde8f08700bf0ca80020c0
:1017d80004a80020a0a7002014a8002044a60020e8
:1017e80024a8002030a8002004ed00e0f8a700207d
:020000040000fa
:1017f8002de9f04184b0044601914ff000084646b7
:1018080045464f4f43e0013ba36323684bb123692f
:101818005bb902f023fe4ff00108404604b0bde872
:10182800f08102f067fda060f1e704f1100000f01c
:10183800cffc0028edd0424b4ff080521a60bff326
:101848004f8fbff36f8fe4e702f008fe4ff00008f8
:10185800e3e702a802f09cfd23e002f0c3fca068c5
:1018680000f086fd804602f0f9fd40e0204601f0d8
:1018780047fafff705ff09e0204601f041fafff7b4
:10188800fffe204602f0cafd002844d1012602f0de
:10189800a9fca36b002bb6d1019b002bd4d0002e42
:1018a800d7d002f0dbfd02f021fe02f09bfc94f899
:1018b80044305bb2b3f1ff3f08bf84f8445094f85a
:1018c80045305bb2b3f1ff3f08bf84f8455002f0e2
:1018d800c5fd01a902a801f0c1fc0028ccd1204611
:1018e80002f09cfd0028c1d02368002bb5d00199d7
:1018f80004f1240002f0f0fc204601f001fafff7a1
:10190800bffe0028c2d14ff080533b60bff34f8f1a
:10191800bff36f8fbae7b8f1000f3ff47eaf02f064
:1019280061fc616a19b1236b1968c1f10501a068ee
:1019380000f028ff02f092fd4ff000086de700bfad
:0419480004ed00e0ca
:020000040000fa
:10194c002de9f04782b08a4691461e469df83040fc
:10195c0001f03cff002800f085800546012c11d0d9
:10196c00022c16d0082c14d0002e00f08380b9f174
:10197c00000f00f081800b9b002b7fd00a9b6bb972
:10198c00002416e00b9b002b6ed00a9b33b900246d
:10199c000fe0002e6ad0b9f1000f69d02f6807f163
:1019ac002c084ff6ff71404602f059fc012804d078
:1019bc000024204602b0bde8f08700236b717d62e5
:1019cc00ba69eb689a4207d03b695b69002105f163
:1019dc000c009847eb68bb61022c23d0042c2ad056
:1019ec00012c0dd03b691b69984768716b79002bf2
:1019fc0033d1002487f82840404602f0bbfcd8e7de
:101a0c003b691b680b9a0a99504698470028e9d005
:101a1c004ff6ff7107f1340002f012fc012816d0ca
:101a2c000024e9e73b695b683246494650469847d3
:101a3c000028edd1d6e73b690b9a00929c680a9b73
:101a4c00324649465046a0470028cbd0e0e797f8ed
:101a5c002840b4fa84f46409cee7012387f82830cf
:101a6c000024c9e70024a4e70024a2e70024a0e78f
:101a7c0000249ee700249ce700249ae7002498e7c2
:020000040000fa
:101a8c00f0b540f2ff7681ea030c16ea115e1ebf38
:101a9c00b64516ea1355b54252d021ea465141f4e7
:101aac008011a1fb024723ea465343f48013ae4452
:101abc00a0fb03650cf0004c36197d41a1fb0347dc
:101acc0047f10003a0fb0217f619654153f100031f
:101adc00094218bf46f0010640f2fe74b3f5007fd0
:101aec0013d2aef5806ea64523d24cea03312803ff
:101afc0041ea155140ea16503203450872f1004292
:101b0c0050f1000051eb0e51f0bdaef2ff3ea64578
:101b1c000fd24ceac321e80241ea555140ea565033
:101b2c00f202450872f1004250f1000051eb0e51e7
:101b3c00f0bd1eea0e0f2dd50cf000410020f0bdbb
:101b4c0016ea115f04bf01f000410020004218bfeb
:101b5c0041f0010116ea135f04bf03f000430022b9
:101b6c00124218bf43f0010306ea1354b44218bfe3
:101b7c00b64503d00cf000410020f0bd21f000412f
:101b8c0023f00043b1eb065f0cd8b3eb065f09d82a
:101b9c0041b13bb10cf0004141f0fe4141f4700108
:101bac000020f0bd40f20001c7f6f8710020f0bd36
:020000040000fa
:101bbc002de9f04784b00446884601921d464ff04b
:101bcc0000094e46424f33e02a464146204601f07a
:101bdc004ef9636a73b938b13d4b4ff080521a60bd
:101bec00bff34f8fbff36f8f02f036fc012004b0b0
:101bfc00bde8f08704f1240000f0e8fa0028f3d0e7
:101c0c00334b4ff080521a60bff34f8fbff36f8f7f
:101c1c00eae702f021fc0020e9e702a802f0b6fb9b
:101c2c0014e0204601f06af8fff728fd4ff0010997
:101c3c0002f0d6faa26be36b9a42c5d3022dc3d045
:101c4c00019b002be5d0b9f1000fe6d002f004fcab
:101c5c0002f04afc02f0c4fa94f844305bb2b3f1df
:101c6c00ff3f08bf84f8446094f845305bb2b3f191
:101c7c00ff3f08bf84f8456002f0eefb01a902a803
:101c8c0001f0eafae8b902f0abfad4f838a0d4f8cb
:101c9c003c9002f0e1fbca45c3d1019904f110005c
:101cac0002f018fb204601f029f8fff7e7fc0028aa
:101cbc00bcd14ff080533b60bff34f8fbff36f8f9e
:101ccc00b4e7204601f01af8fff7d8fc00208ee7a5
:041cdc0004ed00e033
:020000040000fa
:101ce0002de9f04fd1e901590e68d1f80c808bb085
:101cf000002da8bf26f002060393b8bf012516f0f9
:101d0000100302900f460493d2e900ab37d05aea91
:101d10000b0334d0a9f102033c6916f0080104f169
:101d2000ff3405914ff0000108f8041006f002019d
:101d30000691039918bf03f1ff335b1b4139012c56
:101d40001fdc049b002b4cd1059b1bb1013c2023c5
:101d500008f804303a690096013a4b46121b08eb2a
:101d60000401029800f090ff029b5b68db0503d53d
:101d70007b689842b8bf18460bb0bde8f08f4b4661
:101d8000cae75aea0b0007d1002d05dc58190028d4
:101d9000d7dd06980028d4d00af00f000928d4bf58
:101da00030305730192904f1ff340ed840f0200ca0
:101db000acf1610cbcf1190f07d8cde908310792dd
:101dc00002f0cffbdde90831079a08f804004fea7a
:101dd0001a1040ea0b704fea1b1c013d8246e34695
:101de000ade7d2e900231343aed008eb0403039a16
:0e1df00003f8012c023c302308f80430a4e76d
:020000040000fa
:021dfe0070472c
:020000040000fa
:101e000000283cd00368384a002908bf1146b1ebce
:101e1000430f36d3354a934235d807ee901af8ee81
:101e2000677a07ee103af8ee476a87eea67adfed9a
:101e3000306a67eea67af2ee046a77eea67a77ee5b
:101e4000677afceee77a17ee902a2a498b4206d889
:101e5000b2f5ff7f19d8012a3dd9500816e0b2f536
:101e6000bf7f3ad2032a3bd950002349a1fb00c0cf
:101e70004008a1fb0212520842ea002006e00020be
:101e800070470020704700207047ff2019498b429f
:101e900094bf00210121194a136823f00203136043
:101ea000d369002bfcd1154ad060136823f040732e
:101eb00043ea01631360136843f002031360d369bc
:101ec000002bfcd10d4b10225a831a46d369002bec
:101ed000fcd1012070470120d8e74ff67f70d5e78d
:101ee00040f20120d2e700bf0087930340420f0079
:101ef00095bfd633801a0600abaaaaaa00400141ba
:020000040000fa
:101f00002de9f84300286ad050f8043ca0f10804f9
:101f100023f00106a719a259934200d0ffde7a6888
:101f200023681340da070fd4204601f063ff00282e
:101f300057d1384601f0eaff0028f0d07b6823f043
:101f400001031e441f44eae746f001036360304684
:101f50003b6001f005fe054602f068f923687a68e7
:101f60001340db07e0d5dff88ce0dee90089c5f13e
:101f7000200ca5f1200228fa05f009fa0cfc29fa38
:101f800002f240ea0c001043012100ea01020023a2
:101f90001343c5f120007346a5f1200212d121faa6
:101fa00000f001fa02f2a94042ea00021ebfdef888
:101fb00000000143cef8001022b1def804100a43fd
:101fc000cef80420681c03ebc003a3f1080266608e
:101fd0003e60a2605a68e2605c60e3689c60bde8b5
:101fe000f883236823f00103e41a636823f00103f4
:081ff0001e449ee738a4002006
:020000040000fa
:101ff800002861d1394b93f90d30022b5fd1374b53
:102008001b7b002b5ed070b50e464ff6ff7134482f
:1020180002f027f9002858d0304b1b78002b3cd110
:102028002e4b5b68002b3ed12c4b9d68002d4fd06a
:10203800da69144693794bb1103200230133ab426d
:1020480046d014461032a0790028f7d10122a27197
:10205800224a22602671002161715269e26016f0fd
:10206800080f02d01d4a012111701c4a5168013124
:102078005160118cdbb243ea0143a360138c013336
:102088009bb24ff6ff72934208bf012313480384a3
:10209800303002f071f9a06870bd114802f06cf997
:1020a8004ff0ff30f8e716f0080fbdd00c4802f0eb
:1020b80063f94ff0ff30efe74ff0ff3070474ff014
:1020c800ff3070474ff0ff3070474ff0ff30e3e7c5
:1020d800034802f051f94ff0ff30dde7f8a6002081
:0420e80028a7002005
:020000040000fa
:1020ec00324b00221a7403f50063314a9a621a4685
:1020fc00536813f0100ffbd12e4b4222c3f88420ef
:10210c001a46d2f8843013f0400ffad02a4b002232
:10211c009a6377225a631a46d36b13f0040ffbd1e0
:10212c00254b022283f830201a46d36b13f0020f92
:10213c00fbd1214a136c03f00303032bfad11f4b81
:10214c0001225a711a46d37813f0010ffbd0194ba8
:10215c001b4a1a621a46536813f0040ffbd1154b35
:10216c00184a5a621a46536813f0080ffbd1114be8
:10217c004122c3f8dc201a46d2f8dc3013f0400fb1
:10218c00fad00c4b4122c3f8e0201a46d2f8e030ca
:10219c0013f0400ffad0094b6ff07f421a6140f2f6
:1021ac00ff725a61084a9a61704700bf00140040e0
:1021bc0006013000001c00400010004000080040e8
:0c21cc0007010100070102005686010017
:020000040000fa
:1021d80030b4c368db689a6ad869196a8160d869bb
:1021e800486003f118005168814204bf196a5160c0
:1021f80000219962116801391160254a1268002a84
:1022080039d15a699868d968816098684860181dfa
:102218005168814204bfd968516000215961116831
:1022280001391160da6a1b4c256801219140294364
:102238002160194902eb820201eb820252689a601e
:102248009468dc6060609060dc6aa200101980000d
:102258000d185d61085801302244920088500f4ad9
:102268001168da6acb6a9a4283bf01200c4b186066
:10227800002030bc70470b4a5168d9618c681c62d9
:10228800606088609a62116801311160e7e700bff9
:102298000ca8002014a8002044a60020f8a70020bd
:0822a80030a80020a0a70020cf
:020000040000fa
:1022b000f8b52ded028b0368b3f1ff3f4ed0044615
:1022c0000422142101f036fd054600284bd1627d21
:1022d000237d43ea022308ee103ae27da37d43ea20
:1022e000022308ee903ab8ee687af8eec87ac7eea4
:1022f000277a17ee900a01f0ebfc02460b4600200d
:102300001a4902f053f906460f46b8ee487af8ee3d
:10231000e87a77ee677a17ee900a01f0d9fc024668
:102320000b4630463946fff7b1fb06460f4620699b
:1023300001f0cefc02460b4630463946fef725fd3d
:1023400001f00eff83b218ee902a18ee101a08481a
:1023500001f018ff2846bdec028bf8bd054801f0de
:102360007bfe0125f6e70425f4e700bf0000f03fff
:08237000e0280000bc28000079
:020000040000fa
:10237800002856d070b50446c26a2b490968c96a54
:102388008a4245d28169002905db27490968c96a5b
:10239800c1f10501816102eb8202244901eb82024d
:1023a8006169914205d0204a1268d26ae26201202e
:1023b80036e0251d284601f099fe38b91c490b68fe
:1023c800e06a0122824023ea02030b60164b1b6875
:1023d800db6ae36216490e68012000fa03f2324311
:1023e8000a60124a03eb830302eb83035b68a36072
:1023f8009968e1604d609d60e56aab0059198900f4
:1024080056186661515801442b449b00d15007e08f
:10241800054a1268406cd36a98422cbf00200120fc
:1024280070bd0020704700bff8a7002044a6002018
:0424380014a80020c4
:020000040000fa
:10243c0070b504460e46234b1d68234b18680430b8
:10244c0001f052fe48b9204b1a6820490b68d06a3b
:10245c000122824023ea02030b60b4f1ff3f0dd04e
:10246c002c44194b1b685c60a5421dd9184b18688d
:10247c00154b1968043101f0f1fb70bd002eefd043
:10248c00144a5168104b1868816018688c68c460d5
:10249c001868043060601868043088601b685a61e2
:1024ac00136801331360e8e70b4b1868064b196887
:1024bc00043101f0d3fb094b1b68a34284bf074bcb
:1024cc001c60dae72ca80020f8a7002014a8002034
:1024dc0000a80020b4a70020fca700201ca8002006
:020000040000fa
:1024ec00882910b536d012dc812943d003dc802931
:1024fc0040d0002010bd82290ed08429f9d1196852
:10250c0002b30a1d1a60b1f90020d3171ee0a029ee
:10251c002bd00bdc9029ecd11968073121f0070185
:10252c0001f108021a60d1e900230fe0c02901d0a3
:10253c00f029ded11a68111d19601368036000239d
:10254c00436005e00a1d1a600a880023c0e90023d5
:10255c000120cfe7196822b10a1d1a6091f90020f9
:10256c00d3e70a1d1a600a78efe71a68111d196083
:10257c001268cae719681ab10a1d1a600a68c4e71a
:0c258c000c1d1c600b68c0e90032e1e788
:020000040000fa
:10259800244b1b681bb1244b01221a60704710b5ed
:1025a800214b00221a60214b1b681b6b1a68b2f181
:1025b800a53f03d15a68b2f1a53f23d01b4b186839
:1025c8001968343101f067ff194b1b68b3fa83f3bc
:1025d800dbb2c3f11f03174a9900c81802eb800049
:1025e800446864684460194402460832944212d030
:1025f80003eb83030f4a02eb83035b68da680b4b38
:102608001a6010bd9a68b2f1a53fd7d1db68b3f163
:10261800a53fd3d1d8e760680a46064901eb820294
:102628005060e5e70ca8002030a80020f8a700209b
:0826380014a8002044a60020b4
:020000040000fa
:102640002de9f041d2e900230c4686b007465fea47
:10265000d37820684968a5680590e66841d0524261
:1026600063eb4303002908db20f002000590b8f17a
:10267000000f02d1059948072ad5691e05a80290c6
:102680000a20cde90010204600f0bbfbb8f1000f96
:1026900002d1059b59071fd5b8f1000f00f1ff309b
:1026a00014bf2d232b2333542269059b0093013a39
:1026b0002b46121a3118384600f0e6fa7b68db0523
:1026c00003d563689842b8bf184606b0bde8f081ec
:1026d0000807d2d42946d1e71a07e5d501382023c7
:0826e000e1e70029c0dac5e7bb
:020000040000fa
:1026e80070b506460d46144601231a46194601f0f0
:1026f80005fb002838d10023012245ea04013046b1
:1027080001f0fcfa034688bb102d23d006d9202df2
:1027180023d0302d24d1164af26003e005bb4ff0d8
:102728007e52f26007ee904af8eee77a9fed117a52
:1027380067ee877a77ee877ac6ed027a96ed037aa6
:1027480067ee877adfed0c6a87eea67a86ed047a63
:10275800184670bd094af260e4e7094af260e1e709
:102768004ff07e52f260dde70423f1e70423efe740
:1027780000501a460000c842000061440000c841e9
:042788000000d64334
:020000040000fa
:10278c00002846d038b50446426c914238bf1146f9
:10279c00c26a8a4202d0806c012800d038bde16246
:1027ac00a0690028a4bfc1f10501a16102eb82025e
:1027bc00184901eb820261699142efd1251d28462f
:1027cc0001f092fc38b914490b68e06a012282408e
:1027dc0023ea02030b60e36a0f49086801229a405e
:1027ec0002430a600b4a03eb830302eb83035b682f
:1027fc00a3609968e1604d609d60e06a83001918e0
:10280c008900551865615158013103449b00d15022
:0c281c00c4e7704744a6002014a8002068
:020000040000fa
:10282800002830d11f4b93f90d30022b2ed010b554
:102838001c48012202730b6803614b68c3618b68f3
:10284800836000234360436202840370cb68436162
:10285800cb688361303001f083fdd0b1124801f0bc
:102868007ffdc8b100231a461946104800f03efe05
:10287800a8b10c4c23699b6921460d48984702234f
:102888006373002007e04ff0ff3070474ff0ff30d0
:1028980070474ff0ff3010bd4ff0ff30fbe74ff0af
:1028a800ff30f8e7f8a6002024a700202ca7002076
:0428b800b93f000024
:020000040000fa
:1028bc0054534c3235393120496e76616c69642041
:1028cc00493243204472697665722048616e646cab
:1028dc00650d000025642c2025642c204c75783a5d
:1028ec0025640d0a0000000054534c323539312058
:1028fc0044726976657220496e6974204f4b0d00e5
:10290c0054534c3235393120436869704944204660
:10291c006f756e643a20307825780d0a000000003f
:10292c0054534c323539312043686970494420493d
:10293c006e76616c69643a20307825780d0a000057
:020000040000fa
:10294c0000283ed038b50446c36b002b3bd0006c3e
:10295c00a0fb03230bb1002036e00d4601f040fc38
:10296c002268216ce36b03fb01f3d018a0600020fc
:10297c00a06362605b1a1344e360ff2384f8443065
:10298c0084f84530a5b923691bb901f065fd012018
:10299c001ae004f11000fff719fc0028f5d00b4bde
:1029ac004ff080521a60bff34f8fbff36f8fece77d
:1029bc0004f1100001f025fd04f1240001f021fdcb
:1029cc00e3e700207047002038bd00bf04ed00e0b5
:020000040000fa
:1029dc0000283bd070b50446826c013a8264c06a10
:1029ec00616c884234d00ab1002070bd251d284688
:1029fc0001f07afb38b917490b68e06a0122824072
:102a0c0023ea02030b60636ce362c3f10502a2616b
:102a1c0010490e68012000fa03f232430a600e4a94
:102a2c0003eb830302eb83035b68a3609968e160ab
:102a3c004d609d60e56aab005919890056186661b6
:102a4c00515801442b449b00d150cee700207047d5
:0c2a5c000020cae714a8002044a60020b7
:020000040000fa
:102a68002de9ff41836946690093f61acde90161b2
:102a780004461746039216444ff002086d46424634
:102a88002946206801f0caf9b04209d1d4e90232d6
:102a9800c4e905331a44a262384604b0bde8f0819f
:102aa80000280dda6268002342f01002b8f1020f24
:102ab800a362c4e90533626015d06b68ff1aebe7bf
:102ac8006b68984288bf0835a6eb000688bfc01a15
:102ad8002b6803442b606b68a3eb000088bf08f1e8
:0a2ae800ff386860cbe71f46d6e711
:020000040000fa
:022af20070472b
:020000040000fa
:102af40008b5194b9847194b9847eff3108172b6f4
:102b0400174ad2f8883043f47003c2f88830bff310
:102b14004f8fbff36f8f01b962b6124a936823f0e7
:102b2400010393601346da6812f0010ffbd10d4bd9
:102b340024225a6001229a6001f04ffd0a4b23f0cf
:102b44007f03074a9360094b9847094b9847094b01
:102b5400984701f02bfcfee7f32a0000f32a00005b
:102b640000ed00e00060004100000000e1330000df
:082b7400f32a0000f32a00001f
:020000040000fa
:102b7c0038b5044610f0070f05d020f007030833d2
:102b8c00834225d91c4601f0affc184b1b686bb176
:102b9c0024b3174b1b681c4449f6f77294420bd8ac
:102bac00a3420cd3fef76afd1ae000240f4a114b26
:102bbc0023f007031360ebe7fef760fd10e00b4a10
:102bcc0015681d440a4b1c60fef758fd5db907e003
:102bdc0001f08afc054b1b68002be6d0fef74efd7e
:102bec0001f060fc0025284638bd00bf34a400204d
:082bfc00f4a7002033000020c3
:020000040000fa
:102c040010b5044603218088fff7f4f92060b0f181
:102c1400ff3f0fd0174801f01dfa01221221204670
:102c240001f086f8217d502909d0134801f0a8fa53
:102c3400022010bd114801f00dfa0120f9e71048f7
:102c440001f09efa012210212046fff74bfd0123db
:102c54001a460021204601f053f848b90023012206
:102c64001321204601f04cf8002818bf0420e0e7a7
:102c74000420dee7f42800002c290000bc28000012
:042c84000c29000017
:020000040000fa
:102c88002de9ff471d460c9b13f0010906468a46ad
:102c9800144601d195420bd822465146304600f0e1
:102ca800e9fea54204d82546284604b0bde8f087c9
:102cb8002f1b102f3a464ff0200128bf10226846dc
:102cc800b84601f02bfcb8f10f0f11d83b096ff093
:102cd8000f0202fb03726946304600f0cbfeb9f1e1
:102ce800000fe1d122465146304600f0c3fedbe733
:102cf80010226946304600f0bdfea8f11008e2e750
:020000040000fa
:102d080070b5054601f06efa95f8454064b2002c9e
:102d180011dd6b6a7bb105f1240606e001f03cfc8d
:102d2800013c64b23cb16b6a2bb13046fff750faf4
:102d38000028f5d0f2e7ff2385f8453001f08efb37
:102d480001f050fa95f8444064b2002c11dd2b696b
:102d58007bb105f1100606e001f01efc013c64b2ef
:102d68003cb12b692bb13046fff732fa0028f5d079
:0e2d7800f2e7ff2385f8443001f070fb70bdd8
:020000040000fa
:102d8600842910b523d00cdc812903d0822913d0e5
:102d960080290bd119680c1d1c600b6803601a6032
:102da60013e0902921d003dc882917d0002010bd1c
:102db600a029efd0c029ece719680c1d1c600b6830
:102dc6000360d1171046c3e900010120efe7196837
:102dd6000c1d1c600b6803601a80f6e719680c1d51
:102de6001c600b6803601a70efe719680c1d1c6005
:0c2df60009680160d317c1e90023e6e77b
:020000040000fa
:102e02002de9f84f04460c9f6668d4f80cb024698b
:102e120010463a68013c002502f0020a0b9a0bf8b0
:102e22000450002e1946b8bf0126012390464feaee
:102e3200e279002c03dcd3b12046bde8f88f50eada
:102e4200010209d1721b002a06dc0a9a521b002acf
:102e5200f1ddbaf1000feed042464b4600f0f9ff29
:102e6200013c134630320bf804200135e1e73b68a0
:082e720023f010033b60dfe7d1
:020000040000fa
:102e7a0070b504461646856b026c5ab903681bb1d5
:102e8a0000200135a56370bd8068fff7a2fd00230d
:102e9a00a360f6e76eb9406801f00efb6368226c26
:102eaa0013446360a268934219d32368636030466f
:102eba00e7e7c06801f000fb226c5242e368134462
:102eca00e36021688b4202d2a3681a44e260022eb0
:102eda0001d00020d5e725b1013d0020d1e73046d9
:062eea00cfe70020cde758
:020000040000fa
:102ef000f8b5846a05460f46164654b1ab6a6a694e
:102f00009b1ab3420bd2324639462846fff7acfd36
:102f1000f8bd01f059fa0028f0d02046f8e7002e5d
:102f2000f1d095f93430002b1bdbdbb23446621e46
:102f3000b95c994212d1224639462846fff794fde2
:102f4000a042e5d32744341b22463946686901f084
:102f5000b8fa6b691c446c613046d9e71446002a04
:062f6000e5d13446f0e764
:020000040000fa
:102f6600f8b5eff311864ff0200383f31188bff312
:102f76006f8fbff34f8f836bc26b9a421fd90f4679
:102f8600044690f845506db201338363b5f1ff3fb7
:102f96000bd1436a0bb9012012e02430fff719f96f
:102fa60088b197b1012038600ae001f0f0fa854255
:102fb6000dd201356db284f84550012000e00020a5
:102fc60086f31188f8bd0120fae70120f8e7012011
:022fd600f6e71c
:020000040000fa
:102fd800f0b50c4649682368a768e56887b00029fa
:102fe8000593a4bf23f00203059305ab02930823be
:102ff800cde900730646d2e900232046fff7fdfe1f
:10300800059bd90642bf00f1ff3030232b54059ba6
:103018001a0742bf00f1ff3020232b542269059b79
:103028000093013a3b46121a29183046fff728fe4a
:103038007368db0503d563689842b8bf184607b0c4
:02304800f0bdd9
:020000040000fa
:02304a00fee79f
:020000040000fa
:10304c00194bda6822f4e0621204120c42f0bf62ef
:10305c0042f40032da60bff35f8f62b6e02183f88e
:10306c002310124a82f83a134ff08060506082f8b5
:10307c003b134ff00060506082f83c134ff08050cf
:10308c00506082f83d134ff0005151605a6a42f47f
:10309c0080225a625a6942f010025a615a6a42f40a
:1030ac0000325a62704700bf00ed00e000e100e022
:020000040000fa
:1030bc0080b5164c164f174edff860802368bbb1f5
:1030cc0001f08ef8fb68dd68281d01f00df83368ff
:1030dc00013b33602368013b236001f0bdf9286b91
:1030ec0000f0e1fe284600f0defe2368002be7d15d
:1030fc00094b1b68012be1d94ff08053c8f8003005
:10310c00bff34f8fbff36f8fd8e700bf08a8002025
:10311c00c8a7002004a8002044a6002004ed00e06d
:020000040000fa
:10312c0000b583b0124b0193002300938022114908
:10313c001148fdf72fff012804d0104b1b6803b07a
:10314c005df804fb4ff0200383f31188bff36f8ffe
:10315c00bff34f8f0a4b4ff0ff321a60094b01221d
:10316c001a60094b00221a6000f054fbe5e700bf1f
:10317c0018a8002098310000bd30000034a90020b0
:0c318c001ca8002028a800202ca800206f
:020000040000fa
:0831980049444c45000000bf52
:020000040000fa
:1031a000eff30980bff36f8f154b1a681ef0100ff5
:1031b00008bf20ed108a20e9f04f10602de90900ca
:1031c0004ff0200080f31188bff34f8fbff36f8f54
:1031d000fff7e2f94ff0000080f3118809bc19688d
:1031e0000868b0e8f04f1ef0100f08bfb0ec108a6e
:1031f00080f30988bff36f8f704700bfaff3008083
:04320000f8a700200b
:020000040000fa
:10320400144b01221a601a46d369002bfcd1114bce
:103214004ff480725a601a46d369002bfcd10d4bcf
:10322400ff22da600c4a1a601a46d369002bfcd1db
:10323400084b10225a831a46d369002bfcd1074b42
:10324400002283f8212083f82020024b83229a75e0
:10325400704700bf004001411600100030a7002055
:020000040000fa
:1032640070b505460c4600f0bfff134b1a6823687f
:10327400b3f1ff3f1ad06968104800682e6886428f
:1032840005d0914203d80023236001240fe0501a93
:10329400834203d800232360012408e09b1a0b44d3
:1032a4002360284601f076f8002400e0002401f0b1
:1032b400d7f8204670bd00bf2ca8002020a800200d
:020000040000fa
:1032c40070b5144b144a0021934206d3134a0025c7
:1032d400d2e9003123b919b970bd03f8011bf3e732
:1032e400946858180c3294b11446834208d111f0f2
:1032f400030318bf012303eb910102eb8102e7e70b
:1033040014f8016b03f8016befe703f8015b8342e8
:10331400fbd1dde7000000202c0000208c0200001f
:020000040000fa
:103324007fb5c36800911546002b18bf013a01927e
:1033340082680446cde902230e46022269460068eb
:1033440000f03efd002808dc00f0180383f00802ba
:1033540063681343636005460fe0019a8242fad220
:10336400a368e363801ae268184420642ab15a1cf3
:10337400e2632e441b7806f8013c284604b070bd75
:020000040000fa
:1033840008b501f0a5f8114b1b680021186801f07d
:10339400bff80f4b1b680021186801f0b9f800f062
:1033a400f9fbfef7a1fefff72bff00f041fcfef74f
:1033b40024fd08490020fff735fa074b1860fff792
:1033c40043fe002001f09cf808bd00bf48a800207f
:0c33d4002ca90020e444000004000020ac
:020000040000fa
:1033e0000e4a38b5002313600d4a0e4c13600e4a86
:1033f0000e4d13600e4a13600e4a13600e4a53625c
:1034000013610123936001f09df800f060feac426f
:1034100000d338bd54f8043b9847f8e738a800209b
:10342000b4a6002070020000b0a6002074020000c4
:0c343000a8a60020aca60020b8a6002032
:020000040000fa
:10343c00202122232424252526262727282828282e
:10344c00292929292a2a2a2a2b2b2b2b2c2c2c2cc8
:10345c002c2c2c2c2d2d2d2d2d2d2d2d2e2e2e2e90
:10346c002e2e2e2e2f2f2f2f2f2f2f2f0001170206
:10347c001d1813031e1b190b1408040d1f161c1208
:0c348c001a0a070c1511090610050f0e96
:020000040000fa
:1034980038b50d46044608b9002038bd43689b0678
:1034a80007d5d0e905239a4216d80023c4e9053385
:1034b800a362d4e90f13994204d20122c91a2068e1
:1034c80001f092f80023c4e90f33002de4d02068fe
:1034d800bde8384001f07cb80022c36a114698471d
:0c34e8006369002be1d14ff0ff30d6e704
:020000040000fa
:1034f40038b504461d4631b101291bd000230360b1
:103504004ff0ff301fe0012d01d900201be0032202
:103514000021012000f038f9206080b1012d0ed186
:1035240000231a461946fef747fb012814bf002062
:10353400012008e02946104600f0b4fd2060206810
:08354400003018bf012038bd62
:020000040000fa
:10354c002de9ff41134dd1f80080af88adf80c7018
:10355c0006462868029002aca8798df80e00002a65
:10356c0018bf1446d1e901571a461bb9204600f082
:10357c00dbff0246002d02dbaa4228bf2a46cdf80b
:10358c0000803b4621463046fff778fb04b0bde88f
:08359c00f08100bfc4450000ee
:020000040000fa
:1035a40070b5d0e90245a54217d10122a1f120034b
:1035b400c1f1200622fa06f602fa03f333438a40e5
:1035c400db43d6431ab10b490a6832400a605a1cdd
:1035d4001fbf084a51680b4053604368ac6043f016
:1035e400010223f00103e5604260c25842f0010287
:0835f400c25070bd38a4002094
:020000040000fa
:1035fc00f0b50c4649682368a668e76887b00029cf
:10360c000593a4bf23f00203059305ab02930a2391
:10361c00cde900630546d2e900232046fff7ebfb1a
:10362c002269059b0093013a3346121a3918284631
:10363c00fff724fb6b68db0503d563689842b8bfc2
:06364c00184607b0f0bdb6
:020000040000fa
:02365200fee791
:020000040000fa
:1036540010b370b506460d4600f082fbd5b10024c8
:103664000e4a137e13f0040ffbd0538b13f0070f95
:103674000bd1536803f00703012b936a14bf33552e
:1036840026f814300134a542ebd1a54214bf002022
:10369400012070bd2c46f8e700207047002001414e
:020000040000fa
:1036a40013b5836a8df80710044673b16369a26a7f
:1036b400934212d3e36a01220df107012046984791
:1036c400012806d19df8070005e000f07bfe0028e4
:1036d400ecd04ff0ff3002b010bd9df8070094f914
:0e36e40034209042e6d05a1c62611870f3e761
:020000040000fa
:0236f200fee7f1
:020000040000fa
:1036f400104b00229a61da610f4b83221a765a68c2
:1037040022f480225a601a46d369002bfcd161b19d
:10371400084b032283f8202041ea4001064b5962fa
:103724001a46d369002bfcd17047024b042283f85c
:0c3734002020f1e730a7002000400141f8
:020000040000fa
:10374000022a70b5044616461d461ad043689b06e9
:1037500017d441b9002d08bf4ff4806505f108006a
:10376000fdf7f0fd01466368012e43f0200363601e
:10377000c4e9021514bfff230a2384f83430024b36
:0c378000e362002070bd00bff12e0000cd
:020000040000fa
:10378c0070b5d8b10546a0fb0132d2b901fb00f0ef
:10379c0010f1490f17d80c464830fff7e9f90646e7
:1037ac0068b114b100f1480300e003463360f563df
:1037bc00346401213046fff7c3f800e000263046a0
:0a37cc0070bd0026fbe70026f9e7b8
:020000040000fa
:0237d600fee70c
:020000040000fa
:1037d800431e13f1030f14d810f47f4f13d1c2b254
:1037e8000c4b9b689a4210d20a4bdb6903eb02131d
:1037f8009a6882420bd19a79002a08bf002318469a
:1038080070470023fbe70023f9e70023f7e70023cd
:08381800f5e700bff8a600204f
:020000040000fa
:1038200010b50e4b1a6842f460021a601a6842f032
:1038300060421a6000f0e8fb0024094b1c6000f0b5
:1038400007fe084a136843f04043136000f0c8fbca
:10385000fef7a2fe00f0b9fc204610bd20ed00e00e
:0838600030a9002034ef00e064
:020000040000fa
:1038680010b582b00d4b1b781bb1012b09d002b0eb
:1038780010bd0b4c2046fff7c1f9012304f8043ca6
:10388800f5e7074c2046fef70ffde37d0093a37d87
:10389800627d217d034800f071fce8e70800002004
:0838a8000c0000203c4100006f
:020000040000fa
:1038b00010b50278202a034600f10100f9d0a2f1e8
:1038c00009010429f5d92b2a07d02d2a11d101216c
:1038d0000133013b00200a2403e00021f8e76043a4
:1038e000801a13f8012f303a092af8d901b9404259
:0638f00010bd0021ede710
:020000040000fa
:0238f600fee7eb
:020000040000fa
:1038f8000e4b002283f8212083f820200c4a1368fd
:1039080023f002031360d369002bfcd1084a136823
:1039180043f002031360d369002bfcd1044b10223f
:103928005a831a46d369002bfcd1704730a7002070
:043938000040014109
:020000040000fa
:10393c00d0b110b40446c9b1084421460c4a6442c3
:10394c00137e13f0010ffbd0536803f00703012b18
:10395c0014bf0b7834f81130936201318142efd1ee
:10396c0001205df8044b7047002070470120f8e7f8
:04397c0000200141e5
:020000040000fa
:1039800010b5054c227832b9044b13b10448aff39b
:1039900000800123237010bd5ca700200000000000
:1039a0000000000008b5034b1bb103490348aff307
:1039b000008008bd0000000060a70020000000009b
:020000040000fa
:1039c0000c4a036810b5546a0b4a591e121b8a42ee
:1039d0000ad22bb1094b0c221a604ff0ff3010bdf8
:1039e000102202600020fae7173323f00f03036070
:1039f000f8e700bfb8a60020efffff7f3ca800203b
:020000040000fa
:103a000010b44c68a40602460b4603d45df8044b80
:103a100000f08ab891f93410c0b2814203d05969dc
:103a20009c6aa14205d3114618465df8044bfff786
:0e3a300039be4c1c5c610a705df8044b704797
:020000040000fa
:023a3e00fee7a1
:020000040000fa
:103a400000b583b00023019301a90068fff78bfa4a
:103a500018b9002003b05df804fb019b4bb1064b85
:103a60004ff080521a60bff34f8fbff36f8f01206a
:0c3a7000f0e70120eee700bf04ed00e0ed
:020000040000fa
:103a7c0038b5436813f4807f0446154610d00369ab
:103a8c0040699a4228bf1d462a4600f014fd62691f
:103a9c005319636123695b1b23610023535538bda4
:0a3aac00db06fcd400f096fcf9e7fd
:020000040000fa
:023ab600fee729
:020000040000fa
:103ab8000c4b93f820305bb20bb10020704710b567
:103ac800084b9880d9605a6100229a601a610124d3
:103ad8009c701a7083f821202146fff707fe2046c4
:083ae80010bd00bf30a7002053
:020000040000fa
:103af00030b50c4a002312f8134024b902eb4303fb
:103b00005b78184630bd01680d78a54209bf02eb0d
:103b1000430301335b78013114bfdbb201600a2b30
:083b2000e9d9eee718430000ab
:020000040000fa
:103b280007b54a68c0b2d2050b468df8070006d51e
:103b38004a69511c5961107003b05df804fb0122f9
:103b48000df10701184600f047fc10b19df8070079
:083b5800f2e74ff0ff30efe748
:020000040000fa
:103b600000090138202813d9b0f5007f05d2094b90
:103b700003ebd00010f8040c7047b0f5e05f06d8f6
:103b8000044b03ebd01010f8040c103070473f20aa
:083b9000704700bf3c34000047
:020000040000fa
:103b98000b4b022283f84720012283f8562083f832
:103ba8005720002183f83310222183f83b1083f833
:103bb800d82083f8d920332283f8bc20704700bf6f
:043bc8000080004138
:020000040000fa
:103bcc000b4b93f820305bb20bb10020704710b553
:103bdc000c46074b98800021d96059619c601a6192
:103bec009970197083f82110fff77efd012010bd2c
:043bfc0030a70020ce
:020000040000fa
:103c000010b50b4c94f8204064b20cb1002010bdec
:103c1000074ca080e360029b6361a16022610021e8
:103c2000a170217084f82110fff764fd0120eee7f8
:043c300030a7002099
:020000040000fa
:103c34000a4b0b4a1a604ff622029a814ff4403223
:103c44005a601a46d369002bfcd1044a136843f026
:103c540002031360d369002bfcd17047002001419b
:043c64000401104007
:020000040000fa
:103c680030b40d68b5f1ff3f02d000f1080202e060
:103c7800026904e01a4653681c68ac42fad95368d2
:103c88004b6099608a605160086103680133036082
:043c980030bc704785
:020000040000fa
:103c9c0010b540b90a4b4ff080521a60bff34f8fea
:103cac00bff36f8f10bd044600f01efc00212046b0
:103cbc00fef7befbfdf7e2fc0028f3d1eae700bffc
:043ccc0004ed00e023
:020000040000fa
:103cd000c0f3c75191b142004fea40704fead201a0
:103ce0004fea310101f16051b2f17f4f38bf7047a7
:103cf00001f1605118bf41f40021704710f00041fc
:043d000000207047e8
:020000040000fa
:103d040000b583b08df8071023b1cbb263f05f0325
:103d14008df8073013460df107022921006800f0e1
:103d240069fb002814bf0020032003b05df804fbe6
:020000040000fa
:103d340000b585b061f05f018df80f10034653f8ac
:103d4400140b0192009301230df10f02292100f0bd
:103d5400fdfa002814bf0020032005b05df804fb21
:020000040000fa
:103d64000a4b5b8b13f0070f0ed0084b80221a7698
:103d740007225a831b7e13f0040f05d0034b9a6a63
:103d84001a7e12f0040ffad1704700bf00200141df
:020000040000fa
:103d940000b583b0074b01930123009300234ff434
:103da400806205490548fdf7f9f8fff7bdf903b04e
:103db4005df804fb00000020884500008d440000ed
:020000040000fa
:103dc4002de9f843002580460e4617462c4601f19e
:103dd4000409bc4202db2846bde8f88359f83420c4
:103de40056f83410404600f04dfa01340544f0e72b
:020000040000fa
:103df40070b505462c68e30701d500200fe0204686
:103e0400fff7acfe064600f00ffa2868a042f1d195
:103e140020f00100281a3146fff7c2fb012070bdd3
:020000040000fa
:103e24002de9f843002580460e4617462c4601f13d
:103e34000409bc4202db2846bde8f88359f8342063
:103e440056f83410404600f02cfa01340544f0e7eb
:020000040000fa
:103e540053b94ab9002908bf00281cbf4ff0ff31ed
:103e64004ff0ff3000f0c0bbadf1080c6de904ce9b
:103e7400fcf70cfdddf804e0dde9022304b0704733
:020000040000fa
:103e8400426822f00102531a102b30b40dd94418a1
:103e940041f0010543f001034550636083504560e0
:0e3ea40004f1080030bcfef729b830bc7047ae
:020000040000fa
:023eb200704757
:020000040000fa
:103eb4004ff0807340f8043c21f0010140f8081ce5
:103ec400054b40f80c3c40f8202c6ff0020340f8fe
:0c3ed400243c4438704700bfcb41000084
:020000040000fa
:103ee00008b54ff0200383f31188bff36f8fbff342
:103ef0004f8ffdf7fffa18b1034b4ff080521a6055
:0c3f0000002383f3118808bd04ed00e0ed
:020000040000fa
:103f0c0070b505466c68e30701d500200de020462e
:103f1c00fff720fe064600f083f96b68a342f1d14f
:0c3f2c0028463146fff738fb012070bd2d
:020000040000fa
:103f3800074b1968024609b9064919601868064905
:103f480002448a4294bf1a604ff0ff30704700bfa6
:0c3f580040a8002040a9002040ab002041
:020000040000fa
:103f6400802910db812901dd83290cd113680733f3
:103f740023f0070303f108011160d3e90023c0e92a
:0a3f84000023012070470020704761
:020000040000fa
:103f8e0070b5002902fb01f614460d4618bf144603
:103f9e0001463246184608bf002400f01afa86423f
:0a3fae0018bfb0fbf5f4204670bd0b
:020000040000fa
:103fb80038b50446456a03691b69984768716b7987
:103fc80033b984f8283004f13400fff735fd38bde3
:083fd800012384f82830f6e70c
:020000040000fa
:103fe00008480068006880f308884ff0000080f3fc
:103ff000148862b661b6bff34f8fbff36f8f00dfd7
:0840000000bf000008ed00e024
:020000040000fa
:10400800054b00221a6005490a60054a05491160f6
:1040180007221a60704700bf10e000e018e000e0d7
:0840280014e000e0bfd4010028
:020000040000fa
:10403000074b1b681b6823b9064b4ff0ff321a6011
:104040007047034b1b68db681a68024b1a607047a5
:08405000fca700201ca80020c1
:020000040000fa
:1040580010b5084c2368196800f0a2f8002807db9f
:1040680023680a20196800f0a1fac00f404210bd69
:084078000120fbe72ca9002048
:020000040000fa
:1040800090f948305a1e1343426880f8483012f0c5
:1040900004031bbf42f010024260c0e90f334ff02f
:0840a000ff3008bf184670470d
:020000040000fa
:1040a80060b188420cd310b50c4602220021fff7fc
:1040b80069fb034600b18463184610bd002300e085
:0640c800002318467047ba
:020000040000fa
:0240ce00704739
:020000040000fa
:1040d000074b19680868b0e8f04f80f30988bff310
:1040e0006f8f4ff0000080f311887047aff30080ae
:0440f000f8a700200d
:020000040000fa
:1040f4000369416882688a60416851605a688242f3
:1041040004bf82685a60002202611a68013a1a6088
:044114001868704770
:020000040000fa
:1041180010b5024600210120fff734fb044638b1f0
:10412800002181600160c1600b460a46fdf742fd2f
:04413800204610bd50
:020000040000fa
:10413c006170702e6320526177446174613a203053
:10414c007825303278253032782530327825303267
:04415c00780d0a00d0
:020000040000fa
:104160000b0d40f21e42d21a09dbcb0243ea50503b
:1041700040f00040202a28bf2022d040704749004c
:0441800080417047c3
:020000040000fa
:104184000fb407b5064b04aa1b6852f8041b186841
:10419400019200f0cdf803b05df804eb04b0704771
:0441a4002ca9002022
:020000040000fa
:1041a80070b50e46054600f0c1f93346044602468e
:1041b80001212846fff7e7fe001b18bf4ff0ff302c
:0241c80070bdc8
:020000040000fa
:1041ca0082b0002301934ff0200383f31188bff3d9
:1041da006f8fbff34f8f019b002bfcd002b070474b
:020000040000fa
:0241ea0070471c
:020000040000fa
:1041ec004ff0200383f31188bff36f8fbff34f8f12
:1041fc00024a136801331360704700bf30a90020d6
:020000040000fa
:10420c005374617274696e6720416d6269656e7476
:10421c00323120436c69636b2044656d6f0d000077
:020000040000fa
:10422c00064b013053f830203ab9c100a1f1080215
:10423c001a44194443f830204a60704738a40020cf
:020000040000fa
:10424c0008b54ff6ff73994208bf4ff0ff31006875
:0e425c00fdf7ccfa012814bf0020012008bd98
:020000040000fa
:10426a0008b54ff6ff73994208bf4ff0ff31006857
:0e427a00fdf7bdfa012814bf0020012008bd89
:020000040000fa
:1042880038b550b952b10c46012529462046fff7ea
:0e429800ddf90028f9d0012000e0002038bd3b
:020000040000fa
:1042a60038b50d461446012801d0204638bd2146b2
:0c42b6002846fff740fb0028f9d0f6e78f
:020000040000fa
:0242c200704743
:020000040000fa
:1042c400b93a0000cd3b0000013c0000f938000081
:0c42d4007d450000011e00007145000047
:020000040000fa
:1042e00010b50c46044b19681831fff7bdfc0121cd
:0c42f0002046fef7a3f810bdf8a7002040
:020000040000fa
:1042fc00054b1b6823b1044b1a68936c0133936410
:0c430c00014b1868704700bff8a70020a4
:020000040000fa
:1043180068076c094c836a9074a07ac0008068882a
:0c43280000846c820081286e696c290002
:020000040000fa
:1043340013b50446019201aafcf72ef9636813f041
:0c434400100f18bf4ff0ff3002b010bd8a
:020000040000fa
:1043500010b584b004240294079c0194069c009438
:08436000fdf7f4fa04b010bdf2
:020000040000fa
:1043680003680bb10020704710b504460120fff721
:08437800cffe2060012010bd02
:020000040000fa
:1043800008b500231a4619460068fdf717fc0128f6
:0843900014bf0020012008bd4c
:020000040000fa
:10439800034b1b680360034b1b684360704700bff7
:0843a80020a800202ca8002031
:020000040000fa
:1043b00008b50020fef7e6ff0248fff74dfefff7c5
:0843c000e9fcfce70c420000df
:020000040000fa
:1043c80010b50446fff758fe28b9a368e268c4e9a7
:0843d80005331344a36210bd7c
:020000040000fa
:1043e00010b4c46a1cb123465df8044b184700683a
:0843f0005df8044bfff757bf15
:020000040000fa
:1043f80010b584b002240294002401940094fdf7bf
:06440800a1fa04b010bd92
:020000040000fa
:10440e0000f1080343604ff0ff328260c360036126
:06441e000023036070475b
:020000040000fa
:1044240010b50446fff7e0fea46b00f019f8b4fae7
:0644340084f0400910bdf8
:020000040000fa
:10443a000068002808b501da002008bdfff777fdfb
:06444a00431cfad1f8e763
:020000040000fa
:10445000dff80c00016841f4700101607047000052
:0444600088ed00e003
:020000040000fa
:10446400034a1368013b13600bb983f31188704747
:0444740030a900204b
:020000040000fa
:1044780008b500f09ff8024b1860586008bd00bfef
:04448800eca700207d
:020000040000fa
:10448c0008b54ff47a74fff7e9f92046fff700fc02
:02449c00f9e73e
:020000040000fa
:10449e004ff0200383f31188bff36f8fbff34f8f5d
:0244ae00fee727
:020000040000fa
:1044b0004ff0200383f31188bff36f8fbff34f8f4b
:0244c000fee715
:020000040000fa
:1044c20010b500239a4200d110bdcc5cc454013314
:0244d200f8e709
:020000040000fa
:1044d400024b40f204521a80704700bf0040004172
:020000040000fa
:1044e400c4420000dca700200100000064000000ba
:020000040000fa
:1044f400024a136801331360704700bf0ca8002000
:020000040000fa
:10450400024b00221a701881704700bf0800002077
:020000040000fa
:1045140000294ff480630cbf02220022fff70eb97a
:020000040000fa
:1045240002440346934200d1704703f8011bf9e7a4
:020000040000fa
:1045340003461a46013311780029fad1101a70473c
:020000040000fa
:1045440008b5fff797fffff74efefff74cfe08bdd7
:020000040000fa
:0e455400a0f14103192b98bf40f020007047e2
:020000040000fa
:0e456200a0f16103192b98bf00f05f007047b5
:020000040000fa
:0c457000014b58629962704730a7002090
:020000040000fa
:0c457c00014b93f82100704730a700208d
:020000040000fa
:0c4588004150505f5461736b730000bf22
:020000040000fa
:0c459400014b1868704700bf04a800200d
:020000040000fa
:0c45a000014b01221a60704730a8002077
:020000040000fa
:0845ac0083f00043fcf7ccbad8
:020000040000fa
:0845b40008b5fff723fa08bd6a
:020000040000fa
:0845bc0000487047b0a8002080
:020000040000fa
:0745c400286e756c6c2900e4
:020000040000fa
:0645cc00002303617047ab
:020000040000fa
:0645d2000068fff767be60
:020000040000fa
:0645d8004ff0ff307047b8
:020000040000fa
:0445de00fef771beb5
:020000040000fa
:0445e20000207047fe
:020000040000fa
:0445e60000207047fa
:020000040000fa
:0445ec00704700bf55
:020000040000fa
:0445f00000207047f0
:020000040000fa
:0200000400807a
:044000003912003c35
:020000040000fa
:0200000400807a
:044004008000a82a66
:020000040000fa
:0200000400807a
:04400800ffffffffb8
:00000001FF
